:020000040000FA
:090000000210CC1215680214363E
:10000B000206F0E709F608DFFA8046E709F208DF97
:10001B00FA803E88828C83E709F0A3DFFA8032E313
:10002B0009F608DFFA8078E309F208DFFA807088B6
:10003B00828C83E309F0A3DFFA806489828A83E0F0
:10004B00A3F608DFFA805889828A83E0A3F208DFDF
:10005B00FA804C80D280FA80C680D4806980F2808E
:10006B0033801080A680EA809A80A880DA80E280B4
:10007B00CA803389828A83ECFAE493A3C8C582C809
:10008B00CCC583CCF0A3C8C582C8CCC583CCDFE973
:10009B00DEE7800D89828A83E493A3F608DFF9EC0F
:1000AB00FAA9F0EDFB2289828A83ECFAE0A3C8C59A
:1000BB0082C8CCC583CCF0A3C8C582C8CCC583CCC1
:1000CB00DFEADEE880DB89828A83E493A3F208DF30
:1000DB00F980CC88F0EF60010E4E60C388F0ED2400
:1000EB0002B4040050B9F582EB2402B4040050AF03
:1000FB00232345822390005E73BB010689828A838A
:10010B00E0225002E722BBFE02E32289828A83E4CB
:10011B009322BB010CE58229F582E5833AF583E056
:10012B00225006E92582F8E622BBFE06E92582F875
:10013B00E222E58229F582E5833AF583E49322BB3B
:10014B000111F8E58229F582E5833AF583E0C828A9
:10015B00F0E8225009C58229F8C58226C622BBFECB
:10016B000DC58229F8E2C5822582F2E58222EA25B5
:10017B0083F583E99322BB010FF8E58229F582E52C
:10018B00833AF583E028F0225009C58229F8E582ED
:10019B0026F622BBFE09C58229F8E22582F222F857
:1001AB00EA2583F583E9932822BB010689828A839A
:1001BB00F0225002F722BBFE01F322F8BB010DE542
:1001CB008229F582E5833AF583E8F0225006E9258A
:1001DB0082C8F622BBFE05E92582C8F222C5F0F8DB
:1001EB00A3E028F0C5F0F8E582158270021583E0D4
:1001FB0038F022A3F8E0C5F025F0F0E58215827007
:10020B00021583E0C838F0E822BB010A89828A8391
:10021B00E0F5F0A3E022500687F009E71922BBFEB8
:10022B0007E3F5F009E3192289828A83E493F5F059
:10023B0074019322BB0110E58229F582E5833AF51F
:10024B0083E0F5F0A3E0225009E92582F886F00857
:10025B00E622BBFE0AE92582F8E2F5F008E222E588
:10026B00832AF583E993F5F0A3E99322BB010DC52E
:10027B008229C582C5833AC5830201E85011C58224
:10028B0029F808E5F026F618F5F0E58236F622BBDC
:10029B00FE11C58229F808E225F0F5F0F218E235D7
:1002AB0082F222F8E58229F582E5832AF58374012F
:1002BB009325F0F5F0E4933822BB010A89828A83F7
:1002CB00F0E5F0A3F0225006F709A7F01922BBFEC8
:1002DB0006F3E5F009F31922F8BB0111E58229F5C4
:1002EB0082E5833AF583E8F0E5F0A3F0225009E9C3
:1002FB002582C8F608A6F022BBFE09E92582C8F2C2
:10030B00E5F008F222E88FF0A4CC8BF0A42CFCE9EA
:10031B008EF0A42CFC8AF0EDA42CFCEA8EF0A4CD7C
:10032B00A8F08BF0A42DCC3825F0FDE98FF0A42C90
:10033B00CD35F0FCEB8EF0A4FEA9F0EB8FF0A4CF43
:10034B00C5F02ECD39FEE43CFCEAA42DCE35F0FDF4
:10035B00E43CFC2275F008758200EF2FFFEE33FEB4
:10036B00CD33CDCC33CCC58233C5829BED9AEC9982
:10037B00E58298400CF582EE9BFEED9AFDEC99FC24
:10038B000FD5F0D6E4CEFBE4CDFAE4CCF9A882226B
:10039B00B800C1B90059BA002DEC8BF084CFCECD8B
:1003AB00FCE5F0CBF97818EF2FFFEE33FEED33FDC4
:1003BB00EC33FCEB33FB10D703994004EB99FB0FA9
:1003CB00D8E5E4F9FA227818EF2FFFEE33FEED3380
:1003DB00FDEC33FCC933C910D7059BE99A4007ECF8
:1003EB009BFCE99AF90FD8E0E4C9FAE4CCFB22753F
:1003FB00F010EF2FFFEE33FEED33FDCC33CCC833D3
:10040B00C810D7079BEC9AE899400AED9BFDEC9A34
:10041B00FCE899F80FD5F0DAE4CDFBE4CCFAE4C8AC
:10042B00F922E8600FECC313FCED13FDEE13FEEFA6
:10043B0013FFD8F122BB010DE58229F582E5833A42
:10044B00F5830206385007E92582F802062CBBFE1D
:10045B0007E92582F8020644E58229F582E5833A0D
:10046B00F583020650BB010DE58229F582E5833A3F
:10047B00F5830204C45007E92582F8020696BBFEF9
:10048B0007E92582F80206A222BB010DE58229F5B8
:10049B0082E5833AF58302066D5007E92582F8025F
:1004AB000660BBFE07E92582F8020679E58229F58D
:1004BB0082E5833AF583020686ECF0A3EDF0A3EE1A
:1004CB00F0A3EFF022A8828583F0D083D0821204B0
:1004DB00E71204E71204E71204E7E473E493A3C5FD
:1004EB0083C5F0C583C8C582C8F0A3C583C5F0C555
:1004FB0083C8C582C822BB010789828A830206C0D2
:10050B005005E9F80206AEBBFE05E9F80206D289F2
:10051B00828A830206E4BB011A89828A83D0F0D0D7
:10052B00E0F8D0E0F9D0E0FAD0E0FBE8C0E0C0F0B2
:10053B000206C95016E9F8D083D082D0E0F9D0E09A
:10054B00FAD0E0FBC082C0830206B7BBFE16E9F807
:10055B00D083D082D0E0F9D0E0FAD0E0FBC082C0EB
:10056B00830206DB22BB010DE58229F582E5833A86
:10057B00F5830206C05007E92582F80206AEBBFEE2
:10058B0007E92582F80206D2E58229F582E5833A4E
:10059B00F5830206E4BB0120E58229F582E5833A67
:1005AB00F583D0F0D0E0F8D0E0F9D0E0FAD0E0FB62
:1005BB00E8C0E0C0F00206C95018E92582F8D083E4
:1005CB00D082D0E0F9D0E0FAD0E0FBC082C0830249
:1005DB0006B7BBFE18E92582F8D083D082D0E0F9AC
:1005EB00D0E0FAD0E0FBC082C0830206DB228A8314
:1005FB008982E473EC8EF0A4CCC5F0CCCDF8EFA4DB
:10060B00CEC5F02DFDE43CFCE8A42EC8C5F03DFDA5
:10061B00E43CFCEFA4FFE5F028FEE43DFDE43CFCEC
:10062B0022E6FC08E6FD08E6FE08E6FF22E0FCA356
:10063B00E0FDA3E0FEA3E0FF22E2FC08E2FD08E2FE
:10064B00FE08E2FF22E493FC740193FD740293FE17
:10065B00740393FF22E6FB08E6F908E6FA08E6CBFB
:10066B00F822E0F8A3E0F9A3E0FAA3E0FB22E2FB17
:10067B0008E2F908E2FA08E2CBF822E493F87401F5
:10068B0093F9740293FA740393FB22ECF608EDF6DC
:10069B0008EEF608EFF622ECF208EDF208EEF2089F
:1006AB00EFF222E6FB08E6FA08E6F922EBF608EA97
:1006BB00F608E9F622E0FBA3E0FAA3E0F922EBF05F
:1006CB00A3EAF0A3E9F022E2FB08E2FA08E2F9223E
:1006DB00EBF208EAF208E9F222E493FB740193FAD5
:1006EB00740293F922C0E0C0F0C083C082C0D07501
:1006FB00D000C000C001C002C003C004C005C006CA
:10070B00C0079002A6E4F0D2EC9002D1E004F0C254
:10071B00AF900216E0FBA3E0FAA3E0F912050190FB
:10072B00000912023F85F008F509750A0DC3E58132
:10073B00940DF50B850982850883F0AF0B150BEF34
:10074B006017050AA80AE6FF0509E5097002050806
:10075B00F582850883EFF080E2900232E0700302AD
:10076B0008439002A5E4F09002A5E0FFC394037444
:10077B008094804003020843EF75F003A42426F510
:10078B0082E43402F583E0FBA3E0FAA3E04A4B706A
:10079B000302083A9002A5E075F003A42426F58223
:1007AB00E43402F583E0FBA3E0FAA3E0F9120501C0
:1007BB0090000774FFF5F012027745F0707190020C
:1007CB00A5E0FE75F003A42426F582E43402F5833C
:1007DB00E0FBA3E0FAA3E0F9120501900006E41296
:1007EB0001C6EE75F003A42426F582E43402F583EA
:1007FB00E0FBA3E0FAA3E0F9900225E0FE04F0EEA3
:10080B0075F003A42419F582E43402F583EBF0A30D
:10081B00EAF0A3E9F0EF75F003A42426F582E434A3
:10082B0002F583E4F0A3F0A3F09002A6E004F090AD
:10083B0002A5E004F0020772900232E0FF9002A6DC
:10084B00E0FEC3EF9E900232F0EE60767B007A0002
:10085B00790012132C12050190000512011DFF9057
:10086B000216E0FBA3E0FAA3E0F9120501900005E4
:10087B0012011DFEEFD39E4049900216E0FBA3E050
:10088B00FAA3E0F9E4FD120F597B017A0279A51264
:10089B00132C900216EBF0A3EAF0A3E9F09002A55B
:1008AB00E0FF900225E014FDF01213F5900216E024
:1008BB00FBA3E0FAA3E0F912050190000674041201
:1008CB0001C6900216E0FBA3E0FAA3E0F9120501C2
:1008DB0090000912023F85F008F509750A0DF582A3
:1008EB00850883E0F50BAF0B150BEF60150509E5DC
:1008FB000970020508F582850883E0050AA80AF647
:10090B0080E4850A819002D1E014F07002D2AFC26C
:10091B00ECD007D006D005D004D003D002D001D044
:10092B0000D0D0D082D083D0F0D0E03290028EEBCA
:10093B00F0A3EAF0A3E9F012154690029BEFF01238
:10094B00157590029CEBF0A3EAF0A3E9F090029BE3
:10095B00E0D39404748094804009900297E0700374
:10096B00020B6690029BE0602FA3E0FBA3E0FAA3CF
:10097B00E0F990029BE014F075F003A4F58285F08A
:10098B008312057012050190000512011DFF9002E4
:10099B0097E0B507CE020B669002D1E004F0C2AF30
:1009AB0090028EE0FBA3E0FAA3E0F97D0C7C001231
:1009BB001015C003C002C00190028EE0FBA3E0FA49
:1009CB00A3E0F912052190028EE0FBA3E0FAA3E06D
:1009DB00F9120501E94A4B7003020B6690028EE097
:1009EB00FBA3E0FAA3E0F9E4FD120DD2900291E033
:1009FB00FBA3E0FAA3E0F9C003C002C00190028E92
:100A0B00E0FBA3E0FAA3E0F9120501900002120546
:100A1B00A0900298E0FEA3E0FF90028EE0FBA3E023
:100A2B00FAA3E0F9120501900009EE8FF01202E330
:100A3B0090029AE090000B1201C6900297E0900092
:100A4B00051201C6900006E41201C6900298E475E7
:100A5B00F0011201FE85F082F583740FF090029184
:100A6B00A3E0FAA3E0AE02FD900298E475F0011248
:100A7B0001FE85F082F583EDF0EEFF900298E0FC2D
:100A8B00A3E0F5828C83EFF0E490029BF090029B45
:100A9B00E0C3940A748094805019900298E475F026
:100AAB00011201E885F082F583E4F090029BE004EB
:100ABB00F080DA900294E0FBA3E0FAA3E0F9FF9058
:100ACB000298E475F0011201FE85F082F583EFF0D8
:100ADB00AF01AE02AD037C00780812042D90029892
:100AEB00E475F0011201FE85F082F583EFF0AF01A2
:100AFB00AE02AD037C00781012042D900298E0FC3E
:100B0B00A3E0F5828C83EFF090028EE0FBA3E0FA7A
:100B1B00A3E0F9900225E0FF04F0EF75F003A424A5
:100B2B0019F582E43402F583EBF0A3EAF0A3E9F0C4
:100B3B009002D1E014F07002D2AF900216E0FBA34A
:100B4B00E0FAA3E04A4B6005E4FF120CBA90028E68
:100B5B00E0FBA3E0FAA3E0F90205017B007A007940
:100B6B00002290028AEBF0A3EAF0A3E9F0121169DC
:100B7B0090028D1204C4C28C90028AE0FBA3E0FAAF
:100B8B00A3E0F990000112011D25E025E0FFE589A6
:100B9B0054FB4FF58990000212011DFFE58954FCAF
:100BAB004FF58990000312011D7F0070027F01EF4A
:100BBB00C43333335480FFE58E547F4FF58E900250
:100BCB008AE0FBA3E0FAA3E0F99000051204947FFE
:100BDB00407E427D0F7C0012039BC004C005C00603
:100BEB00C007E58E7F0020E7027F01EF75F00BA4B5
:100BFB002401FFE435F0FE3395E0FDFCD003D00279
:100C0B00D001D000120310A804A905AA06AB0790C7
:100C1B00028DE0FCA3E0FDA3E0FEA3E0FF12039B2B
:100C2B00C3E49FFFE49EFE74019DFDE49CFC9002D7
:100C3B008AE0FBA3E0FAA3E0F990000512047090A0
:100C4B0000051204409002BD1204C4900002120170
:100C5B001D640290028A7014E0FBA3E0FAA3E0F992
:100C6B009000051204408F8A8F8C801DE0FBA3E05F
:100C7B00FAA3E0F99000051204408F8A9000051248
:100C8B000440780812042D8F8C90028AE0FBA3E0BD
:100C9B00FAA3E0F990000412011DFFE58F54FE4FFB
:100CAB00F58F90000912011D24FF928C7F0022907A
:100CBB0002A3EFF09002D1E004F0C2AFC0E0C0F0AD
:100CCB00C083C082C0D075D000C000C004C005C0B6
:100CDB0006C007C001C002C003900216E0FBA3E0F0
:100CEB00FAA3E0F912050190000912023F85F00802
:100CFB00F509750A0DC3E581940DF50B8509828500
:100D0B000883F0AF0B150BEF6017050AA80AE6FF77
:100D1B000509E50970020508F582850883EFF08067
:100D2B00E2900216E0FBA3E0FAA3E0F99002A3E045
:100D3B00FD120F597B017A0279A412132C90021623
:100D4B00EBF0A3EAF0A3E9F09002A4E0FF900225F8
:100D5B00E014FDF01213F5900216E0FBA3E0FAA3EA
:100D6B00E0F912050190000674041201C690000907
:100D7B0012023F85F008F509750A0DF58285088387
:100D8B00E0F50BAF0B150BEF60150509E5097002CC
:100D9B000508F582850883E0050AA80AF680E48534
:100DAB000A81D003D002D001D007D006D005D004E1
:100DBB00D000D0D0D082D083D0F0D0E09002D1E060
:100DCB0014F07002D2AF2290029FEBF0A3EAF0A3D3
:100DDB00E9F0A3EDF0E4FFFE9002CCE0FBA3E0FA18
:100DEB00A3E0F990000C12011DFDEEC39D5027905E
:100DFB0002CCE0FBA3E0FAA3E0F975F003EEA4F557
:100E0B008285F083120570120501120104AC070FE5
:100E1B00B504030E80C290029FE0FBA3E0FAA3E0AF
:100E2B00F9120501EF1201B49002A2E0FF90029FAC
:100E3B00E0FBA3E0FAA3E0F9120501900001EF1229
:100E4B0001C690029FE0FBA3E0FAA3E0F9C003C048
:100E5B0002C0019002CCE0FBA3E0FAA3E0F9C003CF
:100E6B00C002C0019002CCE0FBA3E0FAA3E0F99032
:100E7B00000C740112014A75F003A4F58285F0830E
:100E8B00D001D002D0031205A07F00229002AD74D6
:100E9B0001F0C2C090028374FFF0A37415F0A37429
:100EAB0081F0A37401F0A37402F0A374ADF0A374EA
:100EBB0001F0A3F0A37402F0A374B7F0A37420F0B5
:100ECB007B017A0279AE1212999002AEEBF0A3EA93
:100EDB00F0A3E9F090028374FFF0A37415F0A374F0
:100EEB008DF0A3E4F0A3F0A3F0A37402F07B01A3B5
:100EFB0014F0A37402F0A374B9F0A37420F07A0277
:100F0B0079B11212999002B1EBF0A3EAF0A3E9F0D8
:100F1B0090028374FFF0A37415F0A37499F0A3E40B
:100F2B00F0A3F0A3F0A37403F0A37401F0A3740275
:100F3B00F0A374BBF0A37420F07B017A0279B41296
:100F4B0012999002B4EBF0A3EAF0A3E9F02290021D
:100F5B00AAEBF0A3EAF0A3E9F0E4FF12050190007D
:100F6B0006ED1201C6ED14602A14607524026003AD
:100F7B000210149002AAE0FBA3E0FAA3E0F990029E
:100F8B0025E0FF04F0EF75F003A42419F582E43497
:100F9B0002806CEFC3940474809480506CEF75F0F6
:100FAB0003A42426F582E43402F583E0FBA3E0FAE4
:100FBB00A3E04A4B70289002AAE0FBA3E0FAA3E05F
:100FCB00F9EF75F003A42426F582E43402F583EBE4
:100FDB00F0A3EAF0A3E9F0900232E004F0220F80D4
:100FEB00B29002AAE0FBA3E0FAA3E0F990023FE083
:100FFB00FF04F0EF75F003A42433F582E43402F51B
:10100B0083EBF0A3EAF0A3E9F02290029FEBF0A3AD
:10101B00EAF0A3E9F0C3EC940240077B007A007975
:10102B0000229002D1E004F0C2AF90000474FF756F
:10103B00F0F81201E890029FE0FBA3E0FAA3E0F9BD
:10104B00C003C002C001900003E0FBA3E0FAA3E0E1
:10105B00F9120521900000E0FBA3E0FAA3E0F9C030
:10106B0003C002C001A3E0FBA3E0FAA3E0F99000E8
:10107B00031205A0900003E0FBA3E0FAA3E0F990B4
:10108B000006EC8DF01202E3900000E0FBA3E0FA07
:10109B00A3E0F9900001EC8DF01201E8ED2408FFBC
:1010AB00E43CFEC3900008E09FF0900007E09EF048
:1010BB00900006E004F09002D1E014F07002D2AF81
:1010CB002278EDE4F6D8FD9000007FFF7E1DE4F062
:1010DB00A3DFFCDEFA75818C1213A3021124021517
:1010EB00A5E493A3F8E493A34003F68001F208DF91
:1010FB00F48029E493A3F85407240CC8C333C454D5
:10110B000F4420C8834004F456800146F6DFE48088
:10111B000B0102040810204080901470E47E0193B0
:10112B0060BCA3FF543F30E509541FFEE493A3605A
:10113B00010ECF54C025E060A840B8E493A3FAE4B5
:10114B0093A3F8E493A3C8C582C8CAC583CAF0A306
:10115B00C8C582C8CAC583CADFE9DEE780BEE59D84
:10116B00603178FAE6FBAF9FC3EF9BFFE49400FE80
:10117B00E49400FDE49400FC7BE07A28790178008C
:10118B00120310E42FFFEE3451FEED3425FDEC3449
:10119B0002802E78FBE6FBAF9FC3EF9BFFE494002E
:1011AB00FEE49400FDE49400FCE47B807ABBF9F848
:1011BB00120310E42FFFEE3436FEED346EFDEC34EB
:1011CB0001FC9002911204C4900291E0FCA3E0FD9B
:1011DB00A3E0FEA3E0FFC00790FE01E0FBE4FAF9F9
:1011EB00F8D00712039B9002911204C4900291E075
:1011FB00FCA3E0FDA3E0FEA3E0FF227B017A0279D2
:10120B008012132C900216EBF0A3EAF0A3E9F090F6
:10121B000280E0FF900225E014FDF01213F590021E
:10122B0016E0FBA3E0FAA3E0F912050190000674A7
:10123B00041201C690000912023F85F008F50975EA
:10124B000A0DF582850883E0F50BAF0B150BEF60EC
:10125B00150509E50970020508F582850883E00587
:10126B000AA80AF680E4850A81D003D002D001D007
:10127B0007D006D005D004D000D0D0D082D083D0F8
:10128B00F0D0E09002D1E014F07002D2AF229002C5
:10129B0080EBF0A3EAF0A3E9F090028AE0FBA3E075
:1012AB00FAA3E0F9A3E0FD7C00121015AE02AF012A
:1012BB0090028AE0FBA3E0FAA3E0F9EE8FF01202B2
:1012CB00C4900283E0F9A3E0FAA3E0900291C9F085
:1012DB00A3EAF0A3E9F0900286E0F9A3E0FAA3E019
:1012EB00900294C9F0A3EAF0A3E9F0900289E09090
:1012FB000297F090028AE0FBA3E0FAA3E0F9120256
:10130B0014FF900298E5F0F0A3EFF090028DE090BF
:10131B00029AF0900280E0FBA3E0FAA3E0F9020945
:10132B00379002A7EBF0A3EAF0A3E9F0E4FFFE127B
:10133B0001B4900225E0FDEFC39D5038EF75F0032B
:10134B00A42419F582E43402F583E0FBA3E0FAA3AD
:10135B00E0F912050190000512011DFDD39E40110D
:10136B00AE059002A7E0FBA3E0FAA3E0F9EF1201B0
:10137B00B40F80BE9002A7E0FBA3E0FAA3E0F91242
:10138B00010475F003A42419F582E43402F583E01B
:10139B00FBA3E0FAA3E0F9221200039002D1E004D0
:1013AB00F0C2AF1214A91214F290029174FFF0A3C1
:1013BB007415F0A37431F0A3E4F0A3F0A3F0A3F041
:1013CB00A37402F0A37440F0A37440F07B017A0283
:1013DB0079C91209379002C9EBF0A3EAF0A3E9F03F
:1013EB00120E97121206E4FEFF22ED75F003A424F1
:1013FB0019F582E43402F583E0FBA3E0FAA3E0F9EC
:10140B00EF75F003A42419F582E43402F583EBF0B5
:10141B00A3EAF0A3E9F0ED75F003A42419F582E437
:10142B003402F583E4F0A3F0A3F02278807C027DF4
:10143B00017BFF7A1579B77E007F0A1200DEE490FC
:10144B000282F0A304F09002851204D00000271052
:10145B009002897401F0FB7A027980120B6D7D0189
:10146B007F030214D24402BD000000004402C100FD
:10147B000000004102CF004102D0004102D10041E7
:10148B0002C5004302C60000004D02090000000027
:10149B000000000000000000004102AD0000E490DD
:1014AB000006F0A37402F0A3E4F07B0190000004AB
:1014BB00F0A37400F0A37409F0A3EBF0A37402F093
:1014CB00A37409F07F0022ED24FF92A9EF5402FED2
:1014DB00E5B754FD4EF5B7EF540125E0FFE5B854E1
:1014EB00FD4FF5B87F00229002CCE0FBA3E0FAA3FE
:1014FB00E0F97D0D7C001210159002CCEBF0A3EA05
:10150B00F0A3E9F07F0022900216E0FBA3E0FAA320
:10151B00E0F9120501900007EE8FF01202E37F0154
:10152B00120CBA7F00229002C6E0FBA3E0FAA3E004
:10153B00F9EA494B60F01205F980EB9002CCE0FB25
:10154B00A3E0FAA3E0F990000C12011DFF22900218
:10155B00D1E004F0C2AF9002C5EFF080FE75CB0076
:10156B0075CCFF75B30075B4FF229002CCE0FBA3E2
:10157B00E0FAA3E0F92263E8027F027E0012151263
:10158B0080F463E8047F027E0012151280F463E896
:10159B00087F0A7E0012151280F47F061215597E01
:1015AB00007F01220000000000000000000000008E
:1015BB000000000000000000000000000000000020
:0215CB0000001E
:00000001FF
